S01A00004C6576656C5F6D657465725F6D65676138382E737265632D
S1130000B6C0D0C0CFC080C875C8CCC0CBC0CAC031
S1130010C9C0C8C0C7C0C6C0C5C0C4C0C3C0C2C0B0
S1130020C1C0C0C0BFC0BEC0BDC0BCC0BBC0BAC0E0
S1130030B9C0B8C000407A10F35A00A0724E180933
S11300400010A5D4E80000E87648170000E40B543B
S1130050020000CA9A3B000000E1F505000080960A
S11300609800000040420F000000A086010000003C
S1130070102700000000E8030000000064000000F6
S113008000000A00000000000100000000002C76BF
S1130090D888DC674F0823DFC1DFAE59E1B1B796DA
S11300A0E5E3E453C63AE651997696E8E6C2842637
S11300B0EB898C9B62ED407C6FFCEFBC9C9F40F213
S11300C0BAA56FA5F490055A2AF75C936B6CF9678F
S11300D06DC11BFCE0E40D47FEF520E6B500D0ED54
S11300E0902E0300943577050080841E08000020BC
S11300F04E0A000000C80C333333330F986E12835A
S11301001141EF8D2114893BE65516CFFEE6DB182D
S1130110D1844B381BF77C1D901DA4BBE4242032F2
S113012084725E228100C9F124ECA1E53D27001F01
S1130130000000001F00001F101010101F00001FFF
S1130140181818181F00001F1C1C1C1C1F00001F5F
S11301501E1E1E1E1F00001F1F1F1F1F1F00030740
S11301600F1F0F070300181C1E1F1E1C180011244C
S11301701FBECFEFD4E0DEBFCDBF12E0A0E0B1E000
S1130180E8E6FCE102C005900D92AA30B107D9F768
S113019022E0AAE0B2E001C01D92A534B207E1F763
S11301A08ED360CD2DCF8F929F92AF92BF92EF925C
S11301B0FF920F931F93CF937C01C091330284E08D
S11301C0C89F80011124055F1D4FF80120813181F2
S11301D042815381609134027091350280913602DC
S11301E0909137020CD8F7012081318142815381EB
S11301F0F801208331834283538302D84B015C018D
S113020060933402709335028093360290933702E0
S113021081E08C0F6AE009DA9093330280910A023C
S11302208A3018F48F5F80930A0260910A0270E0AA
S113023080E090E0E3D89B01AC01C501B40148D84B
S1130240F7016083718382839383CF911F910F9110
S1130250FF90EF90BF90AF909F908F9008959BB1C7
S11302609078282F207F30E0359527952BB92BB136
S1130270292B2BB9589A5A9AE7EEF3E03197F1F704
S113028000C000005A985898E7EEF3E03197F1F770
S113029000C000008F70880F880F880F8BB98BB156
S11302A0982B9BB9589A5A9A87EE93E00197F1F7E5
S11302B000C000005A985898E7EEF3E03197F1F740
S11302C000C0000008959BB19078282F207F30E073
S11302D0359527952BB92BB1292B2BB95A9AE7EED3
S11302E0F3E03197F1F700C000005A98E7EEF3E02D
S11302F03197F1F700C000008F70880F880F880FC6
S11303008BB98BB1982B9BB95A9A87EE93E00197DE
S1130310F1F700C000005A98E7EEF3E03197F1F7E7
S113032000C00000089581E0CECF82E0CCCF0F93CF
S11303301F93CF93DF93009751F0EC018C01060FCC
S1130340111DC017D10719F0899189DFFACFDF9108
S1130350CF911F910F910895623031F0633031F0E5
S1130360613029F4805C03C08C5E01C08C5A8068C3
S1130370AACFFF920F931F93CF93DF9328E0629F3E
S1130380B00111246064EC0118E0160FFE01F49032
S113039001E0060F862F97DF8F2D61DF2196602FF6
S11303A00113F4CFDF91CF911F910F91FF90089526
S11303B01F93CF93DF9387E99AE30197F1F700C086
S11303C000001BB81BB88AB188678AB98AB18760F4
S11303D08AB988E18BB95A9AE7EEF3E03197F1F7DD
S11303E000C000005A98E7EEF3E03197F1F700C03F
S11303F000008BB95A9A87EE93E00197F1F700C099
S113040000005A98E7EEF3E03197F1F700C00000DE
S113041080E18BB95A9A87EE93E00197F1F700C017
S113042000005A98E7EEF3E03197F1F700C00000BE
S113043088E249DF8CE047DFCEE2D1E060E011E002
S1130440160FCE0196DF2896612F1830C1F7DF9181
S1130450CF911F910895DF92EF92FF920F931F9314
S1130460CF93DF93D42E46E0D49E90011124482FDD
S1130470429FC001439F900D112470E0F6D87B0188
S1130480CB0166E070E0DDD8082FC0E0D0E010E0DA
S11304901D1589F0CE010596E816F90628F4EC1628
S11304A0FD0620F480E003C085E001C0802FD7DE84
S11304B01F5F2696EDCFDF91CF911F910F91FF9093
S11304C0EF90DF900895CF93DF93289A24E12A9543
S11304D0F1F728983FEF46E721E0315040402040B3
S11304E0E1F700C0000020913B0230913C02283E1D
S11304F03D4F98F4EC0160913B0270913C0280E026
S113050090E07AD728E23EE74CE85CE32BD8688396
S113051079838A839B8381E001C08FEFDF91CF9140
S113052008951F93CF93DF9387E090E02DDBD82FBE
S1130530833008F0D0E02FE788E391E02150804039
S11305409040E1F700C0000031991CC0319BFECF00
S1130550C0E013E0319B16C0E8DE60E080E0FCDE22
S1130560EC2FF0E0EE0FFF1FE050FF4F68E08081BA
S11305709181DDDE65E08D2F03D6612F56D8D92F0A
S1130580C92FE8CF6D2F87E090E00BDB8D2FDF9133
S1130590CF911F910895CF932FE788E391E02150E5
S11305A080409040E1F700C00000319BFECF84E022
S11305B090E0EADAC82F319B11C0B7DE60E080E03A
S11305C0CBDE67E086E091E0B2DE8C2F90E0F5D5DB
S11305D064E0ADDE65E08C2FD3D5ECCF682F84E0EA
S11305E090E0DFDA2FE788E391E0215080409040EB
S11305F0E1F700C00000319BFECF85E090E0C4DA53
S1130600C82F319B11C091DE60E080E0A5DE67E079
S11306108EE091E08CDE8C2F90E0CFD564E087DE15
S113062065E08C2FADD5ECCF682F85E090E0B9DA8A
S1130630319BFECFCF910895CF932FE788E391E0CC
S1130640215080409040E1F700C00000319BFECF74
S113065084E090E099DAC82F319B11C066DE60E037
S113066080E07ADE66E086E191E061DE8C2F90E046
S1130670A4D564E05CDE65E08C2F82D5ECCF682FD6
S113068084E090E08EDA2FE788E391E02150804007
S11306909040E1F700C00000319BFECF85E090E080
S11306A073DAC82F319B11C040DE60E080E054DE75
S11306B066E08DE191E03BDE8C2F90E07ED564E036
S11306C036DE65E08C2F5CD5ECCF682F85E090E0BA
S11306D068DA2FE788E391E0215080409040E1F709
S11306E000C00000319BFECF86E090E04DDAC82FB9
S11306F0319B11C01ADE60E080E02EDE67E08EE000
S113070091E015DE8C2F90E058D564E010DE65E0B2
S11307108C2F36D5ECCF682F86E090E042DA319BFF
S1130720FECFCF910895CF932FE788E391E0215036
S113073080409040E1F700C00000319BFECF84E090
S113074090E022DAC82F319B11C0EFDD60E080E039
S113075003DE66E084E291E0EADD8C2F90E02DD5A3
S113076064E0E5DD65E08C2F0BD5ECCF682F84E0E9
S113077090E017DA2FE788E391E021508040904021
S1130780E1F700C00000319BFECF85E090E0FCD98A
S1130790C82F319B11C0C9DD60E080E0DDDD66E07B
S11307A08CE291E0C4DD8C2F90E007D564E0BFDDDE
S11307B065E08C2FE5D4ECCF682F85E090E0F1D98B
S11307C02FE788E391E0215080409040E1F700C09A
S11307D00000319BFECF86E090E0D6D9C82F319B34
S11307E011C0A3DD60E080E0B7DD67E08EE091E05A
S11307F09EDD8C2F90E0E1D464E099DD65E08C2FE0
S1130800BFD4ECCF682F86E090E0CBD9319BFECFEC
S1130810CF910895CF93C0E0319B28C086DD61E07D
S113082080E09ADDC11104C066E086E191E009C070
S1130830C13021F466E08DE191E003C067E08EE011
S113084091E075DD8C2F90E08C5F9F4F9DD990E0F7
S1130850B4D464E06CDD63E08FEA91E068DD65E0C8
S11308608C2F8ED463E0E1D6C92FD6CFCF910895D3
S1130870CF93C0E0319B21C058DD61E080E06CDDA6
S1130880C11104C068E084E391E003C067E08EE036
S113089091E04DDD8C2F90E08C5F9F4F75D990E0F7
S11308A08CD464E044DD63E08FEA91E040DD65E0F0
S11308B08C2F66D4C82FC170DDCFCF910895CF930C
S11308C0DF93CDB7DEB7AD970FB6F894DEBF0FBE9A
S11308D0CDBF6EDD28DD4DD4209A389A579A259ADB
S11308E02D9A1092800010928200299A219819DE84
S11308F08C8B813009F43FC020F0823009F47AC037
S11309009BC0319B2FC084E090E03ED9182F85E036
S113091090E03AD9282F30E0A12FB0E0DBD624E6CE
S113092030E040E050E0B4D6CA01B90165D57BC0DF
S1130930FCDC60E080E010DD60E18DE391E0F7DC59
S113094065E0812F1DD4182F117061E080E004DD73
S113095063E0113059F48EE491E0E9DC3199E8CF99
S1130960112389F2E0DC68DE11E0F8CF82E591E042
S1130970DEDC10E0F3CF319B34C084E090E004D996
S1130980889FC001112464E670E06FD6072E000C26
S1130990880B990B33D523EC35EF48E450E4E2D5CA
S11309A06D8B7E8B8F8B988F85E090E042C0BDDC91
S11309B060E080E0D1DC60E18DE391E0B8DC65E0EB
S11309C0812FDED3182F117061E080E0C5DC63E075
S11309D0113059F48EE491E0AADC3199E8CF112367
S11309E061F2A1DCD8DD11E0F8CF82E591E09FDC73
S11309F010E0F3CF319B97DE84E090E0C5D8182F48
S1130A0085E090E0C1D8282F30E0A12FB0E062D675
S1130A10F3D423EC35EF48E451E4A4D520E030E8E6
S1130A204BE355E455D46D8B7E8B8F8B988F86E08A
S1130A3090E0AAD88B8B05C01B8A1D8A1E8A1F8A48
S1130A40188E83B7817F846083BF809168008D7F17
S1130A508093680080916C00826080936C00809128
S1130A60680081608093680080916B00826080934D
S1130A706B0078943299F9C0329BFECF56DC60E06B
S1130A8080E06ADC6EE086E591E051DC329B02C0D6
S1130A903399FCCF2FEF36E741E0215030404040FE
S1130AA0E1F700C000003299ACC060E080E054DCA3
S1130AB06FE085E691E03BDC61E080E04DDC60E1E5
S1130AC085E791E034DC3199FECF5FEF86E791E072
S1130AD0515080409040E1F700C0000024DC60E009
S1130AE080E03ADC60E186E891E021DC61E080E0CE
S1130AF033DC1092390280913902853198F5809166
S1130B0038028823C1F08DE392E0DDDC80913D0260
S1130B1090913E02A0913F02B09140028093410225
S1130B2090934202A0934302B093440281E492E082
S1130B303ADB1092380261E080E00EDC80913902E9
S1130B4040E164E188DCAFEFB0E722E0A150B040BF
S1130B502040E1F700C00000809139028F5F80934C
S1130B603902C9CFE0DB60E080E0F6DB66E087E9CC
S1130B7091E0DDDB60914102709142028091430279
S1130B8090914402AE014F5F5F4F7A018A0123E0E6
S1130B9030E044E050E0AAD5F70101900020E9F7E5
S1130BA03197BF016E197F09C701C1DB61E080E0A5
S1130BB0D3DB6AE08EE991E0BADB60914102709187
S1130BC04202809143029091440220E030E048E4E4
S1130BD052E47ED34B015C0123E030E044E050E07A
S1130BE085D5F70101900020E9F73197BF016E190F
S1130BF07F09C7019CDBB501A40180E090E0E3D745
S1130C002AC0339922C080E090E0C6D74B015C0132
S1130C1061E080E0A1DB6AE08EE991E088DBCE014F
S1130C2001967C018C0123E030E044E050E0C501F2
S1130C30B4015CD5F70101900020E9F73197BF01B9
S1130C406E197F09C70173DB06C0812C912C70E8F3
S1130C50A72E7FE3B72E9FEFA9E6B8E19150A040FD
S1130C60B040E1F700C0000006C0812C912C60E880
S1130C70A62E6FE3B62E4B88242D30E043E0449E2D
S1130C80F0011124F595E795F595E79555E0459E16
S1130C90C001112466E070E0E8D47B01C901880F2B
S1130CA0991F63E070E0E1D4A7E04A9EC0011124DB
S1130CB053E0959587955A95E1F7B4EFB98F1A8A61
S1130CC02901330F660877084A8E5B8E6C8E7D8E01
S1130CD02F01FF0F660877084AA25BA26CA27DA2CF
S1130CE02C01990F660877084EA25FA268A679A620
S1130CF09E012F5F3F4F19012701FF0C66087708FB
S1130D004E8E5F8E68A279A22B01770F6608770852
S1130D104AA65BA66CA67DA6598C552021F0252DEC
S1130D202150298F22C02D98809168008260809381
S1130D30680080916C00826080936C00789483B723
S1130D40816083BF889583B78E7F83BFF89483B710
S1130D508E7F83BF809168008D7F8093680080912F
S1130D606C00827080936C007894DFDA60E080E03D
S1130D70F3DA8DE392E0A7DB80913802882309F44B
S1130D8091C11092380280913D0290913E02A0914F
S1130D903F02B09140028093410290934202A0939B
S1130DA04302B093440281E492E0FDD96091410290
S1130DB0709142028091430290914402A5019401F2
S1130DC0D1D3609341027093420280934302909383
S1130DD044023C89C0904102D0904202E090430218
S1130DE0F09044026A8D7B8D8C8D9D8D323071F430
S1130DF005D3A701960103D22D893E894F89588DC9
S1130E00B1D320E030E040EA51E40DC0F7D2A701AD
S1130E109601F5D12D893E894F89588DA3D320E0C1
S1130E2030E040E251E454D26B017C014090410235
S1130E305090420260904302709044026AA17BA1E8
S1130E408CA19DA1DBD2A30192013ED287FF14C0E5
S1130E5040904102509042026090430270904402DC
S1130E606E8D7F8D88A199A1C9D2A301920176D3F9
S1130E70181614F45F9A13C0409041025090420235
S1130E8060904302709044026AA57BA58CA59DA541
S1130E90B5D2A301920162D318160CF45F98409066
S1130EA041025090420260904302709044026EA14D
S1130EB07FA188A599A5A2D2A301920105D287FF9B
S1130EC012C05F984FE758E381E0415050408040A2
S1130ED0E1F700C00000409A61E08CE03DDA64E094
S1130EE089EA91E019C0409041025090420260901A
S1130EF04302709044026E8D7F8D88A199A17ED2A9
S1130F00A30192012BD318165CF4409861E08CE0A5
S1130F1023DA64E08EEA91E00ADA60E080E01CDA29
S1130F206A8D7B8D8C8D9D8D69D22B013C01209126
S1130F3041023091420240914302509144025FD1F8
S1130F402FD2862F40E16B8986DA329B04C0339B13
S1130F5002C0319903C02D9A94EF998F329B02C03D
S1130F60339909C061E08A890BD183708A8B329BE3
S1130F70FECF339BFCCF61E080E0EED9AA89A1309B
S1130F8071F465E083EB91E0D2D920E030E0A9016F
S1130F90C701B60199D1882309F4A1C054C0BA8904
S1130FA0B1110DC065E089EB91E0C1D9C090410257
S1130FB0D0904202E0904302F09044023BC02A8960
S1130FC02230C9F466E08FEB91E0B1D9209141025F
S1130FD0309142024091430250914402C301B20154
S1130FE00ED16B017C0120E030E0A9016DD1882392
S1130FF009F46AC028C03A89333009F08DCE93D9F8
S113100094D960E080E0A8D967E086EC91E08FD9BC
S11310104C88442049F0242D213059F469E084EDB2
S113102091E085D925DC05C065E08EEC91E07FD99F
S1131030F1DB79D920E030E0A901C701B60144D140
S11310408823B9F11A8A810123E030E044E050E0BA
S1131050C701B6014BD3F10101900020E9F73197A4
S1131060BF0162197309C10162D93A89313029F487
S113107065E08EED91E05BD913C04A88411006C04B
S113108065E083EE91E053D91A8A0CC02A89223094
S113109039F465E083EE91E04AD932E03A8B02C03C
S11310A041E04A8B8FE19EE40197F1F700C0000014
S11310B033CEF10101900020E9F73197BF016219A5
S11310C07309C10134D9DCCFF10101900020E9F7A3
S11310D03197BF0162197309C10129D9DACFF1012E
S11310E001900020E9F73197BF0162197309C1012A
S11310F01ED9BECF1F920F920FB60F9211240F90DC
S11311000FBE0F901F9018951F920F920FB60F925B
S113111011242F933F938F93F89480913A02813056
S113112099F41092810020918400309185003093CD
S11311303C0220933B02109285001092840010928E
S11311403A02809338020CC080913A02811108C09F
S11311508091810081608093810081E080933A02D4
S113116078948F913F912F910F900FBE0F901F9005
S1131170189587B1817F87B988B18E6088B9089541
S113118032990DC02FE738E391E021503040904070
S1131190E1F700C0000032990FC0860F089533991B
S11311A00BC02FE738E391E0215030409040E1F745
S11311B000C00000339B861B0895CF93DF939C01EE
S11311C0E5E0F2E068EE73E050D2605D6083C4E66F
S11311D0D0E0BE014AD2605D6183C901BE0145D23F
S11311E0CAE0D0E0BE0141D2605D6283C901BE01A4
S11311F03CD2805D8383CF01DF91CF910895505815
S1131200BB27AA270ED070C161D130F066D120F07F
S113121031F49F3F11F41EF456C10EF4E095E7FB40
S11312204CC1E92F72D180F3BA17620773078407A0
S1131230950718F071F49EF58AC10EF4E0950B2E13
S1131240BA2FA02D0B01B90190010C01CA01A00114
S11312501124FF27591B99F0593F50F4503E68F16F
S11312601A16F040A22F232F342F4427585FF3CFB0
S1131270469537952795A795F0405395C9F77EF481
S11312801F16BA0B620B730B840BBAF09150A1F0CA
S1131290FF0FBB1F661F771F881FC2F70EC0BA0F50
S11312A0621F731F841F48F4879577956795B795D8
S11312B0F7959E3F08F0B3CF9395880F08F09927D0
S11312C0EE0F979587950895D4D008F481E008959A
S11312D00CD00AC102D140F0F9D030F021F45F3FC4
S11312E019F0EBC0511134C1EEC00FD198F399231A
S11312F0C9F35523B1F3951B550BBB27AA276217D6
S11313007307840738F09F5F5F4F220F331F441F1A
S1131310AA1FA9F333D00E2E3AF0E0E830D0915052
S11313205040E695001CCAF729D0FE2F27D0660F3F
S1131330771F881FBB1F261737074807AB07B0E87E
S113134009F0BB0B802DBF01FF2793585F4F2AF094
S11313509E3F510568F0B1C0FBC05F3FECF3983E7F
S1131360DCF3869577956795B795F7959F5FC9F7F1
S1131370880F911D9695879597F90895E1E0660F7A
S1131380771F881FBB1F621773078407BA0720F0F3
S1131390621B730B840BBA0BEE1F88F7E09508955C
S11313A0BCD088F09F5790F0B92F9927B751A0F07F
S11313B0D1F0660F771F881F991F1AF0BA95C9F7E5
S11313C012C0B13081F0C3D0B1E00895C0C0672F1E
S11313D0782F8827B85F39F0B93FCCF38695779595
S11313E06795B395D9F73EF490958095709561957E
S11313F07F4F8F4F9F4F0895E89409C097FB3EF4A9
S113140090958095709561957F4F8F4F9F4F99234D
S1131410A9F0F92F96E9BB279395F69587957795CB
S11314206795B795F111F8CFFAF4BB0F11F460FF8B
S11314301BC06F5F7F4F8F4F9F4F16C0882311F0E3
S113144096E911C0772321F09EE8872F762F05C0F7
S1131450662371F096E8862F70E060E02AF09A9592
S1131460660F771F881FDAF7880F9695879597F987
S11314700895990F0008550FAA0BE0E8FEEF161621
S11314801706E807F907C0F012161306E407F50774
S113149098F0621B730B840B950B39F40A2661F0E8
S11314A0232B242B252B21F408950A2609F4A1408B
S11314B0A6958FEF811D811D089597F99F6780E898
S11314C070E060E008959FEF80EC089500240A9492
S11314D01616170618060906089500240A9412160B
S11314E01306140605060895092E0394000C11F43E
S11314F0882352F0BB0F40F4BF2B11F460FF04C0EB
S11315006F5F7F4F8F4F9F4F089557FD9058440F43
S1131510551F59F05F3F71F04795880F97FB991F4E
S113152061F09F3F79F0879508951216130614060B
S1131530551FF2CF4695F1DF08C016161706180698
S1131540991FF1CF86957105610508940895E89473
S1131550BB2766277727CB0197F908958ADF08F41C
S11315608FEF08950BD0C0CFB1DF28F0B6DF18F0AD
S1131570952309F0A2CFA7CF1124EACFC6DFA0F3A9
S1131580959FD1F3950F50E0551F629FF001729F14
S1131590BB27F00DB11D639FAA27F00DB11DAA1F33
S11315A0649F6627B00DA11D661F829F2227B00D80
S11315B0A11D621F739FB00DA11D621F839FA00D0B
S11315C0611D221F749F3327A00D611D231F849F5B
S11315D0600D211D822F762F6A2F11249F575040B2
S11315E08AF0E1F088234AF0EE0FFF1FBB1F661F4D
S11315F0771F881F91505040A9F79E3F510570F006
S11316005CCFA6CF5F3FECF3983EDCF386957795ED
S11316106795B795F795E7959F5FC1F7FE2B880F00
S1131620911D9695879597F90895991B79E004C0C3
S1131630991F961708F0961B881F7A95C9F780950D
S11316400895AA1BBB1B51E107C0AA1FBB1FA61705
S1131650B70710F0A61BB70B881F991F5A95A9F757
S113166080959095BC01CD01089597FB072E16F443
S1131670009406D077FD08D0E4DF07FC05D03EF4E3
S1131680909581959F4F0895709561957F4F08952A
S1131690A1E21A2EAA1BBB1BFD010DC0AA1FBB1F72
S11316A0EE1FFF1FA217B307E407F50720F0A21BE4
S11316B0B30BE40BF50B661F771F881F991F1A9451
S11316C069F760957095809590959B01AC01BD017B
S11316D0CF010895A29FB001B39FC001A39F01D081
S11316E0B29F700D811D1124911D0895EF920F93E7
S11316F01F93CF93DF93E80147FD02C034E001C09C
S113170034E1042E000C550B57FF03C0519541954D
S11317105109E32E022F242FAE0107D0CE01DF9111
S1131720CF911F910F91EF900895A9E0B0E0EAE9FD
S1131730FBE067C26A01122FB02E2BE3201720F0C2
S1131740FF24F394F00E02C02CE3F22E0F2D27E0B9
S1131750AE014F5F5F4F40D1BC014981842F897036
S1131760813031F0E1FC06C0E0FE06C090E205C025
S11317709DE203C09BE201C090E05E2D507143FFE7
S11317803CC0911102C083E001C084E0811718F4C9
S1131790212F281B01C020E051110BC0F601822F1C
S11317A030E2882319F031938150FBCFC20ED11C53
S11317B020E0992329F0D6019C93F60131966F011C
S11317C0C6010396E2FE0AC03EE4D6013C9341E41E
S11317D011964C93119712963C9306C03EE6F6017F
S11317E0308341E641833283FC01322F40E23323CC
S11317F009F442C041933150FACF42FF44C09111E1
S113180002C083E001C084E0811718F4212F281B53
S113181001C020E051110BC0F601822F30E2882371
S113182019F031938150FBCFC20ED11C20E09923D3
S113183029F0D6019C93F60131966F01C6010396F7
S1131840E2FE0BC039E4D6013C933EE411963C938E
S1131850119736E412963C9307C039E6F6013083BB
S11318603EE6318336E63283FC01322F40E23323F5
S113187019F041933150FBCFFC01E20FF11D1082AE
S11318808EEF9FEFA6C021E030E0911102C020E06E
S113189030E0161617061CF4FB01319602C0E1E095
S11318A0F0E02E0F3F1FBB2021F0EB2DF0E031962E
S11318B002C0E0E0F0E02E0F3F1FE12FF0E02E1712
S11318C03F071CF4121B212F01C020E08E2D8871CC
S11318D059F4F601822F30E2882319F031938150B4
S11318E0FBCFC20ED11C20E0992329F0D6019C9392
S11318F0F60131966F0151110BC0F601822F90E36E
S1131900882319F091938150FBCFC20ED11C20E0A3
S11319100F2D060F9A81342F307144FF03C0913389
S113192009F40150101624F4093018F008E001C03D
S113193001E0AB0177FF02C040E050E0FB01E41B93
S1131940F50BA1E0B0E0AC0FBD1FEA0FFB1F8EE268
S1131950A82E4B01801A91080B2D10E011950195CA
S113196011094F3FBFEF5B0721F4D601AC921196EA
S11319706D01641775072CF08416950614F48181A3
S113198001C080E3415051093196D60111967D0181
S11319904017510724F0D6018C936701E2CF6417F6
S11319A0750739F4963320F4953319F4311101C0D5
S11319B081E3F6018083F701822F90E2882319F0F6
S11319C091938150FBCFF701E20FF11D108280E06B
S11319D090E02996ECE031C1283008F027E0332765
S11319E0DA01990F311D87FD91600096610571053B
S11319F039F432602E5F3D9330E32A95E1F7089580
S1131A009F3F30F080387105610509F03C5F3C5F11
S1131A103D93913008F08068911DDF93CF931F931D
S1131A200F93FF92EF92192F987F9695E92F969531
S1131A309695E90FFF27E257FF4F99273327EE24A6
S1131A40FF24A701E70105900894079428F4360FB2
S1131A50E71EF81E491F511D660F771F881F991F27
S1131A600694A1F70590079428F4E70EF81E491F81
S1131A70561FC11D770F881F991F661F0694A1F773
S1131A800590079428F4F80E491F561FC71FD11D4F
S1131A90880F991F661F771F0694A1F70590079476
S1131AA020F4490F561FC71FD81F990F661F771FB1
S1131AB0881F0694A9F784911095177041F0D69564
S1131AC0C79557954795F794E7941A95C1F7E4E3BA
S1131AD0F0E0689415901591359165919591059074
S1131AE07FE27395E118F10A430B560BC90BD00939
S1131AF0C0F7E10CF11E431F561FC91FD01D7EF411
S1131B00703311F48A95E6CFE894015030F0080F51
S1131B100AF40027021708F4202F2395022F7A33A2
S1131B2028F079E37D932A95E9F710C07D932A95EF
S1131B3089F6069497956795379517951794E11844
S1131B40F10A430B560BC90BD00998F023957E91EB
S1131B5073957A3308F070E37C932013B8F77E9181
S1131B6070617D9330F0839571E37D9370E32A95E2
S1131B70E1F71124EF90FF900F911F91CF91DF9126
S1131B80992787FD90950895F999FECF92BD81BD5F
S1131B90F89A992780B50895A6E1B0E044E050E0B2
S1131BA01CC0262FF999FECF92BD81BDF89A0197EA
S1131BB000B4021639F01FBA20BD0FB6F894FA9A91
S1131BC0F99A0FBE08950396272FECDFEADF252F3D
S1131BD0E9DF242FE7CFDC01CB01FC01F999FECF2B
S1131BE006C0F2BDE1BDF89A319600B40D924150A1
S1131BF05040B8F708952F923F924F925F926F92A0
S1131C007F928F929F92AF92BF92CF92DF92EF9288
S1131C10FF920F931F93CF93DF93CDB7DEB7CA1B09
S1131C20DB0B0FB6F894DEBF0FBECDBF09942A8834
S1131C30398848885F846E847D848C849B84AA84DC
S1131C40B984C884DF80EE80FD800C811B81AA8169
S1131C50B981CE0FD11D0FB6F894DEBF0FBECDBF34
S10B1C60ED010895F894FFCF93
S1131C68E901F301FC0152616469616C2000486573
S1131C786967687420005769647468200044657053
S1131C8874682000417869732041200041786973A1
S1131C982042200052616E6469616C20004F6B3FE2
S1131CA8202B2F2D20285945537C4E4F29004E4F69
S1131CB820005945530043616C2E3F202B796573EE
S1131CC8202D4E6F007365742061207461726765FE
S1131CD87420617400302E356D267072657373201C
S1131CE8656E7465720063616C2E20696E20707273
S1131CF86F677265737300446973743D20004361B0
S1131D086C5F636F65663D2000212121200020203F
S1131D18202000566F6C7520004469737420004CB1
S1131D286576656C3A0044696D206F6620004361EE
S1131D3872743A0043796C696E6465723A00206C77
S1131D4874200020636D20200043617274657369F8
S1131D58616E0043796C696E64657200456C6C69E8
S10D1D6870746963003030303000FD
S9030000FC
